S01000005465726D5F70726A2E73726563D1
S113000045C0000061C000005FC000005DC000008A
S11300105BC0000058C5000057C0000055C0000078
S113002053C0000051C0000024C500004DC00000B2
S11300304BC0000049C0000047C0000045C000009C
S113004022C3000041C000003FC000003DC00000CA
S11300503BC0000039C0000037C0000035C00000BC
S113006033C0000031C000002FC000002DC00000CC
S11300702BC0000029C000009FC2000025C0000062
S113008023C0000021C000001FC0000011241FBEB7
S1130090CFEFD0E1DEBFCDBF11E0A0E0B1E0E6E0FC
S11300A0F2E100E00BBF02C007900D92A63AB1073F
S11300B0D9F723E0A6EAB1E001C01D92A030B2074F
S11300C0E1F754D60C9401099BCFE5E6F0E090816A
S11300D09460908390819D7F9083908191609083C0
S11300E096EF9A95F1F78BBB86EF8A95F1F78081AD
S11300F08E7F80830895E5E6F0E090819B7F908376
S113010090819D7F908390819160908396EF9A95E2
S1130110F1F78BBB86EF8A95F1F780818E7F808320
S1130120089520E030E007C0E6E6FEE03197F1F7FD
S113013000002F5F3F4F482F50E024173507A4F3EA
S11301400895CF93C82F81E0ECDF8C2FBEDFCF91D1
S11301500895CF93DF93EC0102C0F3DF21968881E9
S11301608111FBCFDF91CF91089590E4899F600DB9
S11301701124862F8068BFCF089581E0BCDF82E020
S1130180D0CF08958FEF8ABBE4E6F0E080818F60E2
S113019080830895F7DF88E3AEDF84E0C2DF88E37D
S11301A0AADF84E0BEDF88E3A6DF84E0BADF8EE066
S11301B0A2DF82E0B6DF86E09EDF82E0B2DFDDCF41
S11301C00895CF93DF9381E0ACDF80E494DF81E096
S11301D0A8DFC0E0D0E008C0FE01E45DFE4F8081EE
S11301E074DF81E09EDF2196C830D105ACF388E44A
S11301F082DF81E096DFC0E0D0E008C0FE01EC5C65
S1130200FE4F808162DF81E08CDF2196C830D1050A
S1130210ACF380E570DF81E084DFC0E0D0E008C0AB
S1130220FE01EC5DFE4F808150DF81E07ADF219694
S1130230C830D105ACF388E55EDF81E072DFC0E051
S1130240D0E008C0FE01EC5EFE4F80813EDF81E01D
S113025068DF2196C830D105ACF380E64CDF81E03D
S113026060DFC0E0D0E008C0FE01E45EFE4F8081A4
S11302702CDF81E056DF2196C830D105ACF388E647
S11302803ADF81E04EDFC0E0D0E008C0FE01E45F69
S1130290FE4F80811ADF81E044DF2196C830D1050A
S11302A0ACF3DF91CF910895CF92DF92EF92FF925A
S11302B01F93CF93DF9300D000D000D0CDB7DEB72B
S11302C05CDFFE01319686E0DF011D928A95E9F735
S11302D060E080E04ADF8CE391E03BDF10E080E007
S11302E090E020EE25BBEFEFF7E43197F1F700C083
S11302F0000008C0163031F0E12FF0E0EA55FE4F5F
S113030081E080839899F6CF09C0163039F0E12F47
S1130310F0E0EA55FE4F82E0808381E09999F5CFC1
S113032009C0163039F0E12FF0E0EA55FE4F83E0C2
S1130330808381E09A99F5CF20ED25BBAFEFB7E438
S11303401197F1F700C0000009C0163039F0E12F11
S1130350F0E0EA55FE4F84E0808381E09899F5CF80
S113036009C0163039F0E12FF0E0EA55FE4F85E080
S1130370808381E09999F5CF09C0163039F0E12FD7
S1130380F0E0EA55FE4F86E0808381E09A99F5CF4C
S113039020EB25BBEFEFF7E43197F1F700C0000045
S11303A009C0163039F0E12FF0E0EA55FE4F87E03E
S11303B0808381E09899F5CF09C0163039F0E12F98
S11303C0F0E0EA55FE4F88E0808381E09999F5CF0B
S11303D009C0163039F0E12FF0E0EA55FE4F89E00C
S11303E0808381E09A99F5CF20E725BBAFEFB7E48E
S11303F01197F1F700C0000004C0112311F081E04F
S113040091E09899FACF08C0163031F0E12FF0E06E
S1130410EA55FE4F108281E09999F6CF03C0163059
S113042009F492E09A99FBCF913009F4115092307B
S113043009F447C0882309F454CF911101C01F5F08
S113044080E090E010C0FC01EA55FE4FE081F0E04E
S1130450EE5FFE4F2081E1E0F0E0EC0FFD1FE80FBE
S1130460F91F20830196C12ED12C8C159D055CF3B8
S113047084DE60E080E079DE8CE391E06ADE60E0B7
S113048081E073DEE12CF12C18C0E1E0F0E0EC0F28
S1130490FD1FEE0DFF1D808154DEB2E0EB16F1046A
S11304A019F480E012DE06C0E5E0EE16F10411F462
S11304B081E00BDEFFEFEF1AFF0AEC14FD042CF3CE
S11304C00ECF86EA91E026960FB6F894DEBF0FBEF3
S11304D0CDBFDF91CF911F91FF90EF90DF90CF9030
S11304E0089520E030E005C045E04A95F1F72F5F1C
S11304F03F4F28173907C0F30895CF92DF92EF9248
S1130500FF920F931F93CF93DF936C019C01990F7C
S1130510440B550B60E573EC80E090E02BD6790139
S113052000E010E00EC0C5E6D0E088818F7E8883AD
S1130530C601D7DF888180618883C601D2DF0F5F5F
S11305401F4F0E151F057CF3DF91CF911F910F9163
S1130550FF90EF90DF90CF900895E4E6F0E0808183
S113056080618083E5E6F0E0808180618083089586
S113057090919B0095FFFCCF80939C0008950F936E
S11305801F93CF93DF93EC0103C08991F1DFB8018E
S11305908B0101501109672BC1F7DF91CF911F9196
S11305A00F91089588E980939A00109298008FE043
S11305B080939900789408951F920F920FB60F922A
S11305C011240BB60F928F939F93EF93FF93809117
S11305D0B601E82FF0E090919C00E954FE4F90831F
S11305E08F5F8093B601853028F09091BB019A5FAC
S11305F09093010190910101891303C081E08093DC
S11306001B02FF91EF919F918F910F900BBE0F9062
S11306100FBE0F901F901895CF93DF93CDB7DEB721
S1130620C456D1090FB6F894DEBF0FBECDBFD901B1
S11306309FEF998391E09A838B836C834D8380E051
S113064090E065E00DC0FD01E80FF91F3081E1E0A5
S1130650F0E0EC0FFD1FE60FF11D308301966F5F94
S1130660E42FF0E08E179F0774F370E0CE0101963B
S113067086DFCC59DF4F0FB6F894DEBF0FBECDBF77
S1130680DF91CF9108951F920F920FB60F9211240C
S11306908F939F9383E882BF80911E0290911F02E3
S11306A0019690931F0280931E0280911E029091E6
S11306B01F02892BD9F08091EB0290E0019687709C
S11306C09078992324F40197886F9F6F0196809303
S11306D0EB028091E9029091EA0201969093EA027A
S11306E08093E90210921F0210921E029F918F9133
S11306F00F900FBE0F901F90189587B7816087BF2A
S1130700789485E083BFE091EB02F0E0E356FE4F7E
S1130710808188BB8091E9029091EA02811594401E
S113072090F318BA1092EA021092E90210921F0292
S113073010921E021092EB0287B78E7F87BFF89447
S113074083B78A7F83BF7894089587B7816087BF12
S1130750789485E083BFE091EB02F0E0EB56FE4F26
S1130760808188BB8091E9029091EA0281159440CE
S113077090F318BA1092EA021092E90210921F0242
S113078010921E021092EB0287B78E7F87BFF894F7
S113079083B78A7F83BF78940895FC0120812F3F1B
S11307A009F0E5C02181203109F0E4C08381823061
S11307B009F434C018F4813041F0DFC0833009F407
S11307C080C0843009F4AAC0D8C0D7DC60E080E0DF
S11307D0CCDC82E07ADC83E078DC60E081E0C5DCBC
S11307E084E073DC85E071DC84E797E086DE84EAEC
S11307F096E083DE8BEE95E080DEA7DFFFEF2FEF40
S113080036E781E0F150204030408040D9F700C005
S1130810000073DFB2DC81E090E0089560E080E0E6
S1130820A4DC8AE491E095DC88B3806888BB80E02E
S113083090E004C028B32F7728BB02C00D99FACFEB
S1130840C79B12C00196EFEFF7E43197F1F700C0B0
S11308500000803DF7E09F0789F788B38F7788BB56
S11308608CDC81E090E0089560E080E07EDC8CE345
S113087091E06FDC19DD90931D0280931C029C01B2
S113088046E061E082E0C8DE82E08093B30175DC7B
S113089084E797E032DE84EA96E02FDE8BEE95E083
S11308A02CDE53DF2FEF3FEF86E791E021503040FD
S11308B080409040D9F700C000001FDF81E090E045
S11308C0089560E080E051DC8CE391E042DCECDCF4
S11308D090931D0280931C029C0146E061E082E03B
S11308E09BDE83E08093B30148DC84E797E005DE78
S11308F084EA96E002DE8BEE95E0FFDD26DFEFEF83
S1130900FFEF26E731E0E150F04020403040D9F7D6
S113091000C00000F2DE81E090E008958091B30110
S1130920813061F42DEA31E041E061E075DE25DCDF
S113093087E591E00EDC81E090E00895823051F487
S113094020911C0230911D0246E061E065DE81E0E9
S113095090E008958330A1F420911C0230911D028F
S113096046E061E082E058DE81E090E0089582E0B4
S113097090E0089583E090E0089581E090E0089588
S113098081E090E008951092EA021092E90287B3A0
S11309908F6087BB88B3807F88BB83E882BF08955C
S11309A083E08EBD83B18F7B83B921E32A95F1F770
S11309B0000083B1806483B981E38A95F1F7000074
S11309C083B18F7B83B90F9BFECF1DBC1CBC0F99D9
S11309D0FECF1EBC6CB57DB580E090E0DAD228E491
S11309E031EE4AE850E463D320E030E040E05FE3D6
S11309F05ED320E030E04AEA53E459D320E030E00B
S1130A004AE754E432D299D2643F714010F481E051
S1130A10089580E0089582B1806482B983B18F7BA8
S1130A2083B9089586B1806486B9349BFECF24B11E
S1130A3085B190E0982F8827822B8736934018F051
S1130A4081E090E0089580E090E00895E1E6F0E030
S1130A5080818E7F808380E487B987E886B9089592
S1130A6015BC14BC85E085BD80E487BF089515BC22
S1130A7008951F920F920FB60F9211240BB60F9286
S1130A802F933F934F935F936F937F938F939F9392
S1130A90AF93BF93EF93FF93EADF81E08093E80283
S1130AA0FF91EF91BF91AF919F918F917F916F9142
S1130AB05F914F913F912F910F900BBE0F900FBEFE
S1130AC00F901F9018951F920F920FB60F9211243A
S1130AD00BB60F922F933F934F935F936F937F9334
S1130AE08F939F93AF93BF93EF93FF938091B40140
S1130AF09091B50124B5FC01EE0FFF1FE05EFD4FA0
S1130B0030E03183208301969093B5018093B40142
S1130B10A7DFFF91EF91BF91AF919F918F917F914B
S1130B206F915F914F913F912F910F900BBE0F905A
S1130B300FBE0F901F90189580E189BF83E08ABF94
S1130B4078940895CF92DF92EF92FF92603271050C
S1130B5058F1C12CD12C760120E030E01DC0F90100
S1130B60EE0FFF1FE80FF91F408151814F305105EF
S1130B7088F04431510528F4CC0CDD1CEE1CFF1C1C
S1130B8009C04332510530F4CC0CDD1CEE1CFF1CB3
S1130B906894C0F82F5F3F4F2617370700F36C2D7A
S1130BA07D2D8E2D9F2D04C06FEF7FEF8FEF9FEF74
S1130BB0FF90EF90DF90CF9008954F925F926F92E5
S1130BC07F928F929F92AF92BF92CF92DF92EF92D9
S1130BD0FF920F931F93CF93DF938A01E901B2DF52
S1130BE06F3F2FEF72078207920721F16B017C019F
S1130BF0C094D094E094F094892E9924AA24BB2420
S1130C004E2C512C612C712C84149504A604B70429
S1130C10B1F4472E582E692E7724C424D524E62413
S1130C20F724C11011C0F80180824882462F372F63
S1130C30282F0EC040E030E020E090E009C040E002
S1130C4030E020E090E004C040E030E020E090E0BC
S1130C50642F732F822FDF91CF911F910F91FF90FB
S1130C60EF90DF90CF90BF90AF909F908F907F9048
S1130C706F905F904F900895CF93DF9300D0CDB7DE
S1130C80DEB78091E802882309F44EC06091B40174
S1130C907091B5019E012E5F3F4FAE014F5F5F4FD4
S1130CA080E292E08ADF672B682B692B81F19A81BD
S1130CB08091000198132BC060E080E056DA8091A7
S1130CC0AC01811111C08FE591E043DA8BEF94E020
S1130CD014DC80E794E011DC84EF93E00EDC35DD76
S1130CE081E08093AC0113C0813089F446DA8DE64B
S1130CF091E02FDA84EF93E000DC80E794E0FDDB01
S1130D008BEF94E0FADBF9DC1092AC0136DA109246
S1130D10B5011092B40188ECE0E2F2E0DF011D922B
S1130D208A95E9F71092E8020F900F90DF91CF9126
S1130D300895892B21F082B3806F82BB089582B31A
S1130D408F7082BB089580EF84BB15BA81B3806F26
S1130D5081BB82B38F7082BB82B18F7D82B987B32E
S1130D60806887BB88B38F7788BB0895CF93DF9360
S1130D70CDB7DEB7C456D1090FB6F894DEBF0FBEA7
S1130D80CDBF10DC00DE47DE61DE04DA1ADADBDF19
S1130D90E4DBD2DEC12CD12C11E01123F9F000DE0A
S1130DA08823E1F08091AC01811118C060E0DDD9A5
S1130DB086E791E0CED936DE892B31F081E090E0F0
S1130DC0B8DFCC24C394D12C2DEA31E046E061E0B5
S1130DD081E022DC81E08093B30110E04DDF80915B
S1130DE01B028130D1F6E0900101F12CA70167EBE1
S1130DF071E0CE010196FCD110921B0284E6E7EB70
S1130E00F1E0DF01982F1D929A95E9F78093010193
S1130E101092B601B701CE010196BFDC8130910575
S1130E2051F4C114D104F9F080E090E082DFC12CC8
S1130E30D12C11E0B2CF8230910549F49ED960E003
S1130E4080E093D98EE791E084D911E0A6CF03978F
S1130E5009F0A3CF92D960E080E087D98AE891E0D5
S1130E6078D911E09ACF11E098CF0CD0E6C0DED04B
S1130E7040F0D5D030F021F45F3F19F0C7C05111D4
S1130E8010C1CAC0EBD098F39923C9F35523B1F329
S1130E90951B550BBB27AA2762177307840738F0E5
S1130EA09F5F5F4F220F331F441FAA1FA9F333D044
S1130EB00E2E3AF0E0E830D091505040E695001CF8
S1130EC0CAF729D0FE2F27D0660F771F881FBB1FB4
S1130ED0261737074807AB07B0E809F0BB0B802D8E
S1130EE0BF01FF2793585F4F2AF09E3F510568F0DA
S1130EF08DC0D7C05F3FECF3983EDCF386957795C1
S1130F006795B795F7959F5FC9F7880F911D9695DB
S1130F10879597F90895E1E0660F771F881FBB1F37
S1130F20621773078407BA0720F0621B730B840BE4
S1130F30BA0BEE1F88F7E095089598D088F09F5774
S1130F4090F0B92F9927B751A0F0D1F0660F771F11
S1130F50881F991F1AF0BA95C9F712C0B13081F0F1
S1130F609FD0B1E008959CC0672F782F8827B85F81
S1130F7039F0B93FCCF3869577956795B395D9F752
S1130F803EF490958095709561957F4F8F4F9F4F5C
S1130F900895E89409C097FB3EF490958095709568
S1130FA061957F4F8F4F9F4F9923A9F0F92F96E9B1
S1130FB0BB279395F695879577956795B795F11126
S1130FC0F8CFFAF4BB0F11F460FF1BC06F5F7F4FC3
S1130FD08F4F9F4F16C0882311F096E911C07723D5
S1130FE021F09EE8872F762F05C0662371F096E8DE
S1130FF0862F70E060E02AF09A95660F771F881FAD
S1131000DAF7880F9695879597F9089597F99F676A
S113101080E870E060E008959FEF80EC089500247C
S11310200A941616170618060906089500240A9449
S113103012161306140605060895092E0394000CCF
S113104011F4882352F0BB0F40F4BF2B11F460FF5E
S113105004C06F5F7F4F8F4F9F4F089557FD905887
S1131060440F551F59F05F3F71F04795880F97FB68
S1131070991F61F09F3F79F0879508951216130622
S11310801406551FF2CF4695F1DF08C01616170651
S11310901806991FF1CF8695710561050894089586
S11310A0E894BB2766277727CB0197F908950BD0DF
S11310B0C4CFB5DF28F0BADF18F0952309F0A6CF26
S11310C0ABCF1124EECFCADFA0F3959FD1F3950FD8
S11310D050E0551F629FF001729FBB27F00DB11DB8
S11310E0639FAA27F00DB11DAA1F649F6627B00D48
S11310F0A11D661F829F2227B00DA11D621F739F31
S1131100B00DA11D621F839FA00D611D221F749F3E
S11311103327A00D611D231F849F600D211D822F85
S1131120762F6A2F11249F5750408AF0E1F08823CC
S11311304AF0EE0FFF1FBB1F661F771F881F9150D9
S11311405040A9F79E3F510570F060CFAACF5F3F92
S1131150ECF3983EDCF3869577956795B795F7950C
S1131160E7959F5FC1F7FE2B880F911D9695879594
S113117097F90895052E97FB16F400940FD057FDA8
S113118005D014D007FC02D046F408C05095409511
S1131190309521953F4F4F4F5F4F0895909580951F
S11311A0709561957F4F8F4F9F4F0895A1E21A2E3E
S11311B0AA1BBB1BFD010DC0AA1FBB1FEE1FFF1FF7
S11311C0A217B307E407F50720F0A21BB30BE40B47
S11311D0F50B661F771F881F991F1A9469F760958E
S11311E07095809590959B01AC01BD01CF01089548
S11311F0FB01DC0102C001900D9241505040D8F730
S10912000895F894FFCFED
S1131206186430313233343536373839001F01012A
S1131216010000001F011F101F041F0000040A1113
S1131226110A0400001F10101F001F001F101F04C6
S11312361F040A04041F040A0404041F696E70755B
S11312467420415054204E554D006E6F20646574D1
S1131256656374696F6E0052652073656E64004938
S11312664E5350454354494F4E2E2E2E00436F6D18
S1131276706C6574650057656C636F6D65005354D7
S1131286415254206572726F72004E414D4520657D
S113129672726F720009080C04060203010103024C
S10912A606040C08090017
S9030000FC
